{
  "_format": "hh-sol-artifact-1",
  "contractName": "RandomIpfsNft",
  "sourceName": "contracts/RandomIpfsNft.sol",
  "abi": [
    {
      "inputs": [
        {
          "internalType": "address",
          "name": "vrfCoordinatorV2",
          "type": "address"
        },
        {
          "internalType": "uint64",
          "name": "subscriptionId",
          "type": "uint64"
        },
        {
          "internalType": "bytes32",
          "name": "gasLane",
          "type": "bytes32"
        },
        {
          "internalType": "uint32",
          "name": "callbackGasLimit",
          "type": "uint32"
        },
        {
          "internalType": "string[2]",
          "name": "dogTokenUris",
          "type": "string[2]"
        },
        {
          "internalType": "uint256",
          "name": "mintFee",
          "type": "uint256"
        }
      ],
      "stateMutability": "nonpayable",
      "type": "constructor"
    },
    {
      "inputs": [
        {
          "internalType": "address",
          "name": "have",
          "type": "address"
        },
        {
          "internalType": "address",
          "name": "want",
          "type": "address"
        }
      ],
      "name": "OnlyCoordinatorCanFulfill",
      "type": "error"
    },
    {
      "inputs": [],
      "name": "RandonIpfsNft__NeedMoreETHSent",
      "type": "error"
    },
    {
      "inputs": [],
      "name": "RandonIpfsNft__RangeOutOfBounds",
      "type": "error"
    },
    {
      "inputs": [],
      "name": "RandonIpfsNft__TransferFailed",
      "type": "error"
    },
    {
      "anonymous": false,
      "inputs": [
        {
          "indexed": true,
          "internalType": "address",
          "name": "owner",
          "type": "address"
        },
        {
          "indexed": true,
          "internalType": "address",
          "name": "approved",
          "type": "address"
        },
        {
          "indexed": true,
          "internalType": "uint256",
          "name": "tokenId",
          "type": "uint256"
        }
      ],
      "name": "Approval",
      "type": "event"
    },
    {
      "anonymous": false,
      "inputs": [
        {
          "indexed": true,
          "internalType": "address",
          "name": "owner",
          "type": "address"
        },
        {
          "indexed": true,
          "internalType": "address",
          "name": "operator",
          "type": "address"
        },
        {
          "indexed": false,
          "internalType": "bool",
          "name": "approved",
          "type": "bool"
        }
      ],
      "name": "ApprovalForAll",
      "type": "event"
    },
    {
      "anonymous": false,
      "inputs": [
        {
          "indexed": false,
          "internalType": "enum RandomIpfsNft.Breed",
          "name": "dogBreed",
          "type": "uint8"
        },
        {
          "indexed": false,
          "internalType": "address",
          "name": "minter",
          "type": "address"
        }
      ],
      "name": "NFTMinted",
      "type": "event"
    },
    {
      "anonymous": false,
      "inputs": [
        {
          "indexed": true,
          "internalType": "uint256",
          "name": "requestId",
          "type": "uint256"
        },
        {
          "indexed": false,
          "internalType": "address",
          "name": "requester",
          "type": "address"
        }
      ],
      "name": "NftRequested",
      "type": "event"
    },
    {
      "anonymous": false,
      "inputs": [
        {
          "indexed": true,
          "internalType": "address",
          "name": "previousOwner",
          "type": "address"
        },
        {
          "indexed": true,
          "internalType": "address",
          "name": "newOwner",
          "type": "address"
        }
      ],
      "name": "OwnershipTransferred",
      "type": "event"
    },
    {
      "anonymous": false,
      "inputs": [
        {
          "indexed": true,
          "internalType": "address",
          "name": "from",
          "type": "address"
        },
        {
          "indexed": true,
          "internalType": "address",
          "name": "to",
          "type": "address"
        },
        {
          "indexed": true,
          "internalType": "uint256",
          "name": "tokenId",
          "type": "uint256"
        }
      ],
      "name": "Transfer",
      "type": "event"
    },
    {
      "inputs": [
        {
          "internalType": "address",
          "name": "to",
          "type": "address"
        },
        {
          "internalType": "uint256",
          "name": "tokenId",
          "type": "uint256"
        }
      ],
      "name": "approve",
      "outputs": [],
      "stateMutability": "nonpayable",
      "type": "function"
    },
    {
      "inputs": [
        {
          "internalType": "address",
          "name": "owner",
          "type": "address"
        }
      ],
      "name": "balanceOf",
      "outputs": [
        {
          "internalType": "uint256",
          "name": "",
          "type": "uint256"
        }
      ],
      "stateMutability": "view",
      "type": "function"
    },
    {
      "inputs": [
        {
          "internalType": "uint256",
          "name": "tokenId",
          "type": "uint256"
        }
      ],
      "name": "getApproved",
      "outputs": [
        {
          "internalType": "address",
          "name": "",
          "type": "address"
        }
      ],
      "stateMutability": "view",
      "type": "function"
    },
    {
      "inputs": [
        {
          "internalType": "uint256",
          "name": "moddedRng",
          "type": "uint256"
        }
      ],
      "name": "getBreedFromModdedRng",
      "outputs": [
        {
          "internalType": "enum RandomIpfsNft.Breed",
          "name": "",
          "type": "uint8"
        }
      ],
      "stateMutability": "pure",
      "type": "function"
    },
    {
      "inputs": [
        {
          "internalType": "uint256",
          "name": "index",
          "type": "uint256"
        }
      ],
      "name": "getDogTokenUris",
      "outputs": [
        {
          "internalType": "string",
          "name": "",
          "type": "string"
        }
      ],
      "stateMutability": "view",
      "type": "function"
    },
    {
      "inputs": [],
      "name": "getMintFee",
      "outputs": [
        {
          "internalType": "uint256",
          "name": "",
          "type": "uint256"
        }
      ],
      "stateMutability": "view",
      "type": "function"
    },
    {
      "inputs": [],
      "name": "getTokenCounter",
      "outputs": [
        {
          "internalType": "uint256",
          "name": "",
          "type": "uint256"
        }
      ],
      "stateMutability": "view",
      "type": "function"
    },
    {
      "inputs": [],
      "name": "getchanceArray",
      "outputs": [
        {
          "internalType": "uint256[3]",
          "name": "",
          "type": "uint256[3]"
        }
      ],
      "stateMutability": "pure",
      "type": "function"
    },
    {
      "inputs": [
        {
          "internalType": "address",
          "name": "owner",
          "type": "address"
        },
        {
          "internalType": "address",
          "name": "operator",
          "type": "address"
        }
      ],
      "name": "isApprovedForAll",
      "outputs": [
        {
          "internalType": "bool",
          "name": "",
          "type": "bool"
        }
      ],
      "stateMutability": "view",
      "type": "function"
    },
    {
      "inputs": [],
      "name": "name",
      "outputs": [
        {
          "internalType": "string",
          "name": "",
          "type": "string"
        }
      ],
      "stateMutability": "view",
      "type": "function"
    },
    {
      "inputs": [],
      "name": "owner",
      "outputs": [
        {
          "internalType": "address",
          "name": "",
          "type": "address"
        }
      ],
      "stateMutability": "view",
      "type": "function"
    },
    {
      "inputs": [
        {
          "internalType": "uint256",
          "name": "tokenId",
          "type": "uint256"
        }
      ],
      "name": "ownerOf",
      "outputs": [
        {
          "internalType": "address",
          "name": "",
          "type": "address"
        }
      ],
      "stateMutability": "view",
      "type": "function"
    },
    {
      "inputs": [
        {
          "internalType": "uint256",
          "name": "requestId",
          "type": "uint256"
        },
        {
          "internalType": "uint256[]",
          "name": "randomWords",
          "type": "uint256[]"
        }
      ],
      "name": "rawFulfillRandomWords",
      "outputs": [],
      "stateMutability": "nonpayable",
      "type": "function"
    },
    {
      "inputs": [],
      "name": "renounceOwnership",
      "outputs": [],
      "stateMutability": "nonpayable",
      "type": "function"
    },
    {
      "inputs": [],
      "name": "requestNft",
      "outputs": [
        {
          "internalType": "uint256",
          "name": "requestId",
          "type": "uint256"
        }
      ],
      "stateMutability": "payable",
      "type": "function"
    },
    {
      "inputs": [
        {
          "internalType": "uint256",
          "name": "",
          "type": "uint256"
        }
      ],
      "name": "s_requestIdToSender",
      "outputs": [
        {
          "internalType": "address",
          "name": "",
          "type": "address"
        }
      ],
      "stateMutability": "view",
      "type": "function"
    },
    {
      "inputs": [],
      "name": "s_tokenCounter",
      "outputs": [
        {
          "internalType": "uint256",
          "name": "",
          "type": "uint256"
        }
      ],
      "stateMutability": "view",
      "type": "function"
    },
    {
      "inputs": [
        {
          "internalType": "address",
          "name": "from",
          "type": "address"
        },
        {
          "internalType": "address",
          "name": "to",
          "type": "address"
        },
        {
          "internalType": "uint256",
          "name": "tokenId",
          "type": "uint256"
        }
      ],
      "name": "safeTransferFrom",
      "outputs": [],
      "stateMutability": "nonpayable",
      "type": "function"
    },
    {
      "inputs": [
        {
          "internalType": "address",
          "name": "from",
          "type": "address"
        },
        {
          "internalType": "address",
          "name": "to",
          "type": "address"
        },
        {
          "internalType": "uint256",
          "name": "tokenId",
          "type": "uint256"
        },
        {
          "internalType": "bytes",
          "name": "data",
          "type": "bytes"
        }
      ],
      "name": "safeTransferFrom",
      "outputs": [],
      "stateMutability": "nonpayable",
      "type": "function"
    },
    {
      "inputs": [
        {
          "internalType": "address",
          "name": "operator",
          "type": "address"
        },
        {
          "internalType": "bool",
          "name": "approved",
          "type": "bool"
        }
      ],
      "name": "setApprovalForAll",
      "outputs": [],
      "stateMutability": "nonpayable",
      "type": "function"
    },
    {
      "inputs": [
        {
          "internalType": "bytes4",
          "name": "interfaceId",
          "type": "bytes4"
        }
      ],
      "name": "supportsInterface",
      "outputs": [
        {
          "internalType": "bool",
          "name": "",
          "type": "bool"
        }
      ],
      "stateMutability": "view",
      "type": "function"
    },
    {
      "inputs": [],
      "name": "symbol",
      "outputs": [
        {
          "internalType": "string",
          "name": "",
          "type": "string"
        }
      ],
      "stateMutability": "view",
      "type": "function"
    },
    {
      "inputs": [
        {
          "internalType": "uint256",
          "name": "tokenId",
          "type": "uint256"
        }
      ],
      "name": "tokenURI",
      "outputs": [
        {
          "internalType": "string",
          "name": "",
          "type": "string"
        }
      ],
      "stateMutability": "view",
      "type": "function"
    },
    {
      "inputs": [
        {
          "internalType": "address",
          "name": "from",
          "type": "address"
        },
        {
          "internalType": "address",
          "name": "to",
          "type": "address"
        },
        {
          "internalType": "uint256",
          "name": "tokenId",
          "type": "uint256"
        }
      ],
      "name": "transferFrom",
      "outputs": [],
      "stateMutability": "nonpayable",
      "type": "function"
    },
    {
      "inputs": [
        {
          "internalType": "address",
          "name": "newOwner",
          "type": "address"
        }
      ],
      "name": "transferOwnership",
      "outputs": [],
      "stateMutability": "nonpayable",
      "type": "function"
    },
    {
      "inputs": [],
      "name": "withdraw",
      "outputs": [],
      "stateMutability": "nonpayable",
      "type": "function"
    }
  ],
  "bytecode": "0x6101206040523480156200001257600080fd5b50604051620042cc380380620042cc833981810160405281019062000038919062000809565b6040518060400160405280600f81526020017f52616e646f6d2049504653204e465400000000000000000000000000000000008152506040518060400160405280600381526020017f52494e0000000000000000000000000000000000000000000000000000000000815250878073ffffffffffffffffffffffffffffffffffffffff1660808173ffffffffffffffffffffffffffffffffffffffff1660601b81525050508160009080519060200190620000f59291906200029c565b5080600190805190602001906200010e9291906200029c565b5050506200013162000125620001ce60201b60201c565b620001d660201b60201c565b8573ffffffffffffffffffffffffffffffffffffffff1660a08173ffffffffffffffffffffffffffffffffffffffff1660601b815250508467ffffffffffffffff1660c08167ffffffffffffffff1660c01b815250508360e081815250508263ffffffff166101008163ffffffff1660e01b8152505081600a906002620001ba9291906200032d565b5080600b8190555050505050505062000929565b600033905090565b6000600760009054906101000a900473ffffffffffffffffffffffffffffffffffffffff16905081600760006101000a81548173ffffffffffffffffffffffffffffffffffffffff021916908373ffffffffffffffffffffffffffffffffffffffff1602179055508173ffffffffffffffffffffffffffffffffffffffff168173ffffffffffffffffffffffffffffffffffffffff167f8be0079c531659141344cd1fd0a4f28419497f9722a3daafe3b4186f6b6457e060405160405180910390a35050565b828054620002aa90620008f3565b90600052602060002090601f016020900481019282620002ce57600085556200031a565b82601f10620002e957805160ff19168380011785556200031a565b828001600101855582156200031a579182015b8281111562000319578251825591602001919060010190620002fc565b5b50905062000329919062000394565b5090565b82805482825590600052602060002090810192821562000381579160200282015b82811115620003805782518290805190602001906200036f9291906200029c565b50916020019190600101906200034e565b5b509050620003909190620003b3565b5090565b5b80821115620003af57600081600090555060010162000395565b5090565b5b80821115620003d75760008181620003cd9190620003db565b50600101620003b4565b5090565b508054620003e990620008f3565b6000825580601f10620003fd57506200041e565b601f0160209004906000526020600020908101906200041d919062000394565b5b50565b6000604051905090565b600080fd5b600080fd5b600073ffffffffffffffffffffffffffffffffffffffff82169050919050565b6000620004628262000435565b9050919050565b620004748162000455565b81146200048057600080fd5b50565b600081519050620004948162000469565b92915050565b600067ffffffffffffffff82169050919050565b620004b9816200049a565b8114620004c557600080fd5b50565b600081519050620004d981620004ae565b92915050565b6000819050919050565b620004f481620004df565b81146200050057600080fd5b50565b6000815190506200051481620004e9565b92915050565b600063ffffffff82169050919050565b62000535816200051a565b81146200054157600080fd5b50565b60008151905062000555816200052a565b92915050565b600080fd5b6000601f19601f8301169050919050565b7f4e487b7100000000000000000000000000000000000000000000000000000000600052604160045260246000fd5b620005ab8262000560565b810181811067ffffffffffffffff82111715620005cd57620005cc62000571565b5b80604052505050565b6000620005e262000421565b9050620005f08282620005a0565b919050565b600067ffffffffffffffff82111562000613576200061262000571565b5b602082029050919050565b600080fd5b600080fd5b600067ffffffffffffffff82111562000646576200064562000571565b5b620006518262000560565b9050602081019050919050565b60005b838110156200067e57808201518184015260208101905062000661565b838111156200068e576000848401525b50505050565b6000620006ab620006a58462000628565b620005d6565b905082815260208101848484011115620006ca57620006c962000623565b5b620006d78482856200065e565b509392505050565b600082601f830112620006f757620006f66200055b565b5b81516200070984826020860162000694565b91505092915050565b6000620007296200072384620005f5565b620005d6565b905080602084028301858111156200074657620007456200061e565b5b835b818110156200079457805167ffffffffffffffff8111156200076f576200076e6200055b565b5b8086016200077e8982620006df565b8552602085019450505060208101905062000748565b5050509392505050565b600082601f830112620007b657620007b56200055b565b5b6002620007c584828562000712565b91505092915050565b6000819050919050565b620007e381620007ce565b8114620007ef57600080fd5b50565b6000815190506200080381620007d8565b92915050565b60008060008060008060c087890312156200082957620008286200042b565b5b60006200083989828a0162000483565b96505060206200084c89828a01620004c8565b95505060406200085f89828a0162000503565b94505060606200087289828a0162000544565b935050608087015167ffffffffffffffff81111562000896576200089562000430565b5b620008a489828a016200079e565b92505060a0620008b789828a01620007f2565b9150509295509295509295565b7f4e487b7100000000000000000000000000000000000000000000000000000000600052602260045260246000fd5b600060028204905060018216806200090c57607f821691505b60208210811415620009235762000922620008c4565b5b50919050565b60805160601c60a05160601c60c05160c01c60e0516101005160e01c61394b62000981600039600061102301526000610fdf0152600061100001526000610fa301526000818161091d0152610971015261394b6000f3fe6080604052600436106101815760003560e01c806370a08231116100d1578063a36f573b1161008a578063b88d4fde11610064578063b88d4fde14610577578063c87b56dd146105a0578063e985e9c5146105dd578063f2fde38b1461061a57610181565b8063a36f573b146104df578063a51cccf31461051c578063aa1524911461055957610181565b806370a08231146103e1578063715018a61461041e5780637a5caab3146104355780638da5cb5b1461046057806395d89b411461048b578063a22cb465146104b657610181565b806323b872dd1161013e57806342842e0e1161011857806342842e0e146103255780636352211e1461034e5780636e02007d1461038b5780636ee18b6d146103b657610181565b806323b872dd146102a85780633af25975146102d15780633ccfd60b1461030e57610181565b806301ffc9a71461018657806306fdde03146101c3578063081812fc146101ee578063095ea7b31461022b5780630b21a83b146102545780631fe543e31461027f575b600080fd5b34801561019257600080fd5b506101ad60048036038101906101a891906124f9565b610643565b6040516101ba9190612541565b60405180910390f35b3480156101cf57600080fd5b506101d8610725565b6040516101e591906125f5565b60405180910390f35b3480156101fa57600080fd5b506102156004803603810190610210919061264d565b6107b7565b60405161022291906126bb565b60405180910390f35b34801561023757600080fd5b50610252600480360381019061024d9190612702565b6107fd565b005b34801561026057600080fd5b50610269610915565b6040516102769190612751565b60405180910390f35b34801561028b57600080fd5b506102a660048036038101906102a191906128b4565b61091b565b005b3480156102b457600080fd5b506102cf60048036038101906102ca9190612910565b6109db565b005b3480156102dd57600080fd5b506102f860048036038101906102f3919061264d565b610a3b565b60405161030591906125f5565b60405180910390f35b34801561031a57600080fd5b50610323610aeb565b005b34801561033157600080fd5b5061034c60048036038101906103479190612910565b610b9f565b005b34801561035a57600080fd5b506103756004803603810190610370919061264d565b610bbf565b60405161038291906126bb565b60405180910390f35b34801561039757600080fd5b506103a0610c71565b6040516103ad9190612751565b60405180910390f35b3480156103c257600080fd5b506103cb610c7b565b6040516103d89190612a0e565b60405180910390f35b3480156103ed57600080fd5b5061040860048036038101906104039190612a29565b610ca6565b6040516104159190612751565b60405180910390f35b34801561042a57600080fd5b50610433610d5e565b005b34801561044157600080fd5b5061044a610d72565b6040516104579190612751565b60405180910390f35b34801561046c57600080fd5b50610475610d7c565b60405161048291906126bb565b60405180910390f35b34801561049757600080fd5b506104a0610da6565b6040516104ad91906125f5565b60405180910390f35b3480156104c257600080fd5b506104dd60048036038101906104d89190612a82565b610e38565b005b3480156104eb57600080fd5b506105066004803603810190610501919061264d565b610e4e565b60405161051391906126bb565b60405180910390f35b34801561052857600080fd5b50610543600480360381019061053e919061264d565b610e81565b6040516105509190612b39565b60405180910390f35b610561610f63565b60405161056e9190612751565b60405180910390f35b34801561058357600080fd5b5061059e60048036038101906105999190612c09565b611145565b005b3480156105ac57600080fd5b506105c760048036038101906105c2919061264d565b6111a7565b6040516105d491906125f5565b60405180910390f35b3480156105e957600080fd5b5061060460048036038101906105ff9190612c8c565b6112ba565b6040516106119190612541565b60405180910390f35b34801561062657600080fd5b50610641600480360381019061063c9190612a29565b61134e565b005b60007f80ac58cd000000000000000000000000000000000000000000000000000000007bffffffffffffffffffffffffffffffffffffffffffffffffffffffff1916827bffffffffffffffffffffffffffffffffffffffffffffffffffffffff1916148061070e57507f5b5e139f000000000000000000000000000000000000000000000000000000007bffffffffffffffffffffffffffffffffffffffffffffffffffffffff1916827bffffffffffffffffffffffffffffffffffffffffffffffffffffffff1916145b8061071e575061071d826113d2565b5b9050919050565b60606000805461073490612cfb565b80601f016020809104026020016040519081016040528092919081815260200182805461076090612cfb565b80156107ad5780601f10610782576101008083540402835291602001916107ad565b820191906000526020600020905b81548152906001019060200180831161079057829003601f168201915b5050505050905090565b60006107c28261143c565b6004600083815260200190815260200160002060009054906101000a900473ffffffffffffffffffffffffffffffffffffffff169050919050565b600061080882610bbf565b90508073ffffffffffffffffffffffffffffffffffffffff168373ffffffffffffffffffffffffffffffffffffffff161415610879576040517f08c379a000000000000000000000000000000000000000000000000000000000815260040161087090612d9f565b60405180910390fd5b8073ffffffffffffffffffffffffffffffffffffffff16610898611487565b73ffffffffffffffffffffffffffffffffffffffff1614806108c757506108c6816108c1611487565b6112ba565b5b610906576040517f08c379a00000000000000000000000000000000000000000000000000000000081526004016108fd90612e31565b60405180910390fd5b610910838361148f565b505050565b60095481565b7f000000000000000000000000000000000000000000000000000000000000000073ffffffffffffffffffffffffffffffffffffffff163373ffffffffffffffffffffffffffffffffffffffff16146109cd57337f00000000000000000000000000000000000000000000000000000000000000006040517f1cf993f40000000000000000000000000000000000000000000000000000000081526004016109c4929190612e51565b60405180910390fd5b6109d78282611548565b5050565b6109ec6109e6611487565b826116e8565b610a2b576040517f08c379a0000000000000000000000000000000000000000000000000000000008152600401610a2290612eec565b60405180910390fd5b610a3683838361177d565b505050565b6060600a8281548110610a5157610a50612f0c565b5b906000526020600020018054610a6690612cfb565b80601f0160208091040260200160405190810160405280929190818152602001828054610a9290612cfb565b8015610adf5780601f10610ab457610100808354040283529160200191610adf565b820191906000526020600020905b815481529060010190602001808311610ac257829003601f168201915b50505050509050919050565b610af36119e4565b600047905060003373ffffffffffffffffffffffffffffffffffffffff1682604051610b1e90612f6c565b60006040518083038185875af1925050503d8060008114610b5b576040519150601f19603f3d011682016040523d82523d6000602084013e610b60565b606091505b5050905080610b9b576040517f29c2ea3800000000000000000000000000000000000000000000000000000000815260040160405180910390fd5b5050565b610bba83838360405180602001604052806000815250611145565b505050565b6000806002600084815260200190815260200160002060009054906101000a900473ffffffffffffffffffffffffffffffffffffffff169050600073ffffffffffffffffffffffffffffffffffffffff168173ffffffffffffffffffffffffffffffffffffffff161415610c68576040517f08c379a0000000000000000000000000000000000000000000000000000000008152600401610c5f90612fcd565b60405180910390fd5b80915050919050565b6000600954905090565b610c836123c8565b6040518060600160405280600a8152602001601e81526020016064815250905090565b60008073ffffffffffffffffffffffffffffffffffffffff168273ffffffffffffffffffffffffffffffffffffffff161415610d17576040517f08c379a0000000000000000000000000000000000000000000000000000000008152600401610d0e9061305f565b60405180910390fd5b600360008373ffffffffffffffffffffffffffffffffffffffff1673ffffffffffffffffffffffffffffffffffffffff168152602001908152602001600020549050919050565b610d666119e4565b610d706000611a62565b565b6000600b54905090565b6000600760009054906101000a900473ffffffffffffffffffffffffffffffffffffffff16905090565b606060018054610db590612cfb565b80601f0160208091040260200160405190810160405280929190818152602001828054610de190612cfb565b8015610e2e5780601f10610e0357610100808354040283529160200191610e2e565b820191906000526020600020905b815481529060010190602001808311610e1157829003601f168201915b5050505050905090565b610e4a610e43611487565b8383611b28565b5050565b60086020528060005260406000206000915054906101000a900473ffffffffffffffffffffffffffffffffffffffff1681565b600080600090506000610e92610c7b565b905060005b6003811015610f2b57828510158015610ed15750818160038110610ebe57610ebd612f0c565b5b602002015183610ece91906130ae565b85105b15610ef357806002811115610ee957610ee8612ac2565b5b9350505050610f5e565b818160038110610f0657610f05612f0c565b5b602002015183610f1691906130ae565b92508080610f2390613104565b915050610e97565b506040517fbe96567c00000000000000000000000000000000000000000000000000000000815260040160405180910390fd5b919050565b6000600b54341015610fa1576040517f9be2fbc900000000000000000000000000000000000000000000000000000000815260040160405180910390fd5b7f000000000000000000000000000000000000000000000000000000000000000073ffffffffffffffffffffffffffffffffffffffff16635d3b1d307f00000000000000000000000000000000000000000000000000000000000000007f000000000000000000000000000000000000000000000000000000000000000060037f000000000000000000000000000000000000000000000000000000000000000060016040518663ffffffff1660e01b81526004016110649594939291906131c5565b602060405180830381600087803b15801561107e57600080fd5b505af1158015611092573d6000803e3d6000fd5b505050506040513d601f19601f820116820180604052508101906110b6919061322d565b9050336008600083815260200190815260200160002060006101000a81548173ffffffffffffffffffffffffffffffffffffffff021916908373ffffffffffffffffffffffffffffffffffffffff160217905550807ff873236e6cc0ecc5be1a9a35c95ee5b8d1ac4cc7bfef0cc5060391d6cc98e26b3360405161113a91906126bb565b60405180910390a290565b611156611150611487565b836116e8565b611195576040517f08c379a000000000000000000000000000000000000000000000000000000000815260040161118c90612eec565b60405180910390fd5b6111a184848484611c95565b50505050565b60606111b28261143c565b60006006600084815260200190815260200160002080546111d290612cfb565b80601f01602080910402602001604051908101604052809291908181526020018280546111fe90612cfb565b801561124b5780601f106112205761010080835404028352916020019161124b565b820191906000526020600020905b81548152906001019060200180831161122e57829003601f168201915b50505050509050600061125c611cf1565b90506000815114156112725781925050506112b5565b6000825111156112a757808260405160200161128f929190613296565b604051602081830303815290604052925050506112b5565b6112b084611d08565b925050505b919050565b6000600560008473ffffffffffffffffffffffffffffffffffffffff1673ffffffffffffffffffffffffffffffffffffffff16815260200190815260200160002060008373ffffffffffffffffffffffffffffffffffffffff1673ffffffffffffffffffffffffffffffffffffffff16815260200190815260200160002060009054906101000a900460ff16905092915050565b6113566119e4565b600073ffffffffffffffffffffffffffffffffffffffff168173ffffffffffffffffffffffffffffffffffffffff1614156113c6576040517f08c379a00000000000000000000000000000000000000000000000000000000081526004016113bd9061332c565b60405180910390fd5b6113cf81611a62565b50565b60007f01ffc9a7000000000000000000000000000000000000000000000000000000007bffffffffffffffffffffffffffffffffffffffffffffffffffffffff1916827bffffffffffffffffffffffffffffffffffffffffffffffffffffffff1916149050919050565b61144581611d70565b611484576040517f08c379a000000000000000000000000000000000000000000000000000000000815260040161147b90612fcd565b60405180910390fd5b50565b600033905090565b816004600083815260200190815260200160002060006101000a81548173ffffffffffffffffffffffffffffffffffffffff021916908373ffffffffffffffffffffffffffffffffffffffff160217905550808273ffffffffffffffffffffffffffffffffffffffff1661150283610bbf565b73ffffffffffffffffffffffffffffffffffffffff167f8c5be1e5ebec7d5bd14f71427d1e84f3dd0314c0f7b2291e5b200ac8c7c3b92560405160405180910390a45050565b60006008600084815260200190815260200160002060009054906101000a900473ffffffffffffffffffffffffffffffffffffffff16905060006009549050600060648460008151811061159f5761159e612f0c565b5b60200260200101516115b1919061337b565b905060006115be82610e81565b9050600954600960008282546115d491906130ae565b925050819055506115e58484611ddc565b6116a783600a8360028111156115fe576115fd612ac2565b5b8154811061160f5761160e612f0c565b5b90600052602060002001805461162490612cfb565b80601f016020809104026020016040519081016040528092919081815260200182805461165090612cfb565b801561169d5780601f106116725761010080835404028352916020019161169d565b820191906000526020600020905b81548152906001019060200180831161168057829003601f168201915b5050505050611dfa565b7fab79897476febbd649710b1bd1dc3e93a316d3dee65f65b022ab89a4b7e206b581856040516116d89291906133ac565b60405180910390a1505050505050565b6000806116f483610bbf565b90508073ffffffffffffffffffffffffffffffffffffffff168473ffffffffffffffffffffffffffffffffffffffff161480611736575061173581856112ba565b5b8061177457508373ffffffffffffffffffffffffffffffffffffffff1661175c846107b7565b73ffffffffffffffffffffffffffffffffffffffff16145b91505092915050565b8273ffffffffffffffffffffffffffffffffffffffff1661179d82610bbf565b73ffffffffffffffffffffffffffffffffffffffff16146117f3576040517f08c379a00000000000000000000000000000000000000000000000000000000081526004016117ea90613447565b60405180910390fd5b600073ffffffffffffffffffffffffffffffffffffffff168273ffffffffffffffffffffffffffffffffffffffff161415611863576040517f08c379a000000000000000000000000000000000000000000000000000000000815260040161185a906134d9565b60405180910390fd5b61186e838383611e6e565b61187960008261148f565b6001600360008573ffffffffffffffffffffffffffffffffffffffff1673ffffffffffffffffffffffffffffffffffffffff16815260200190815260200160002060008282546118c991906134f9565b925050819055506001600360008473ffffffffffffffffffffffffffffffffffffffff1673ffffffffffffffffffffffffffffffffffffffff168152602001908152602001600020600082825461192091906130ae565b92505081905550816002600083815260200190815260200160002060006101000a81548173ffffffffffffffffffffffffffffffffffffffff021916908373ffffffffffffffffffffffffffffffffffffffff160217905550808273ffffffffffffffffffffffffffffffffffffffff168473ffffffffffffffffffffffffffffffffffffffff167fddf252ad1be2c89b69c2b068fc378daa952ba7f163c4a11628f55a4df523b3ef60405160405180910390a46119df838383611e73565b505050565b6119ec611487565b73ffffffffffffffffffffffffffffffffffffffff16611a0a610d7c565b73ffffffffffffffffffffffffffffffffffffffff1614611a60576040517f08c379a0000000000000000000000000000000000000000000000000000000008152600401611a5790613579565b60405180910390fd5b565b6000600760009054906101000a900473ffffffffffffffffffffffffffffffffffffffff16905081600760006101000a81548173ffffffffffffffffffffffffffffffffffffffff021916908373ffffffffffffffffffffffffffffffffffffffff1602179055508173ffffffffffffffffffffffffffffffffffffffff168173ffffffffffffffffffffffffffffffffffffffff167f8be0079c531659141344cd1fd0a4f28419497f9722a3daafe3b4186f6b6457e060405160405180910390a35050565b8173ffffffffffffffffffffffffffffffffffffffff168373ffffffffffffffffffffffffffffffffffffffff161415611b97576040517f08c379a0000000000000000000000000000000000000000000000000000000008152600401611b8e906135e5565b60405180910390fd5b80600560008573ffffffffffffffffffffffffffffffffffffffff1673ffffffffffffffffffffffffffffffffffffffff16815260200190815260200160002060008473ffffffffffffffffffffffffffffffffffffffff1673ffffffffffffffffffffffffffffffffffffffff16815260200190815260200160002060006101000a81548160ff0219169083151502179055508173ffffffffffffffffffffffffffffffffffffffff168373ffffffffffffffffffffffffffffffffffffffff167f17307eab39ab6107e8899845ad3d59bd9653f200f220920489ca2b5937696c3183604051611c889190612541565b60405180910390a3505050565b611ca084848461177d565b611cac84848484611e78565b611ceb576040517f08c379a0000000000000000000000000000000000000000000000000000000008152600401611ce290613677565b60405180910390fd5b50505050565b606060405180602001604052806000815250905090565b6060611d138261143c565b6000611d1d611cf1565b90506000815111611d3d5760405180602001604052806000815250611d68565b80611d478461200f565b604051602001611d58929190613296565b6040516020818303038152906040525b915050919050565b60008073ffffffffffffffffffffffffffffffffffffffff166002600084815260200190815260200160002060009054906101000a900473ffffffffffffffffffffffffffffffffffffffff1673ffffffffffffffffffffffffffffffffffffffff1614159050919050565b611df6828260405180602001604052806000815250612170565b5050565b611e0382611d70565b611e42576040517f08c379a0000000000000000000000000000000000000000000000000000000008152600401611e3990613709565b60405180910390fd5b80600660008481526020019081526020016000209080519060200190611e699291906123ea565b505050565b505050565b505050565b6000611e998473ffffffffffffffffffffffffffffffffffffffff166121cb565b15612002578373ffffffffffffffffffffffffffffffffffffffff1663150b7a02611ec2611487565b8786866040518563ffffffff1660e01b8152600401611ee4949392919061377e565b602060405180830381600087803b158015611efe57600080fd5b505af1925050508015611f2f57506040513d601f19601f82011682018060405250810190611f2c91906137df565b60015b611fb2573d8060008114611f5f576040519150601f19603f3d011682016040523d82523d6000602084013e611f64565b606091505b50600081511415611faa576040517f08c379a0000000000000000000000000000000000000000000000000000000008152600401611fa190613677565b60405180910390fd5b805181602001fd5b63150b7a0260e01b7bffffffffffffffffffffffffffffffffffffffffffffffffffffffff1916817bffffffffffffffffffffffffffffffffffffffffffffffffffffffff191614915050612007565b600190505b949350505050565b60606000821415612057576040518060400160405280600181526020017f3000000000000000000000000000000000000000000000000000000000000000815250905061216b565b600082905060005b6000821461208957808061207290613104565b915050600a82612082919061380c565b915061205f565b60008167ffffffffffffffff8111156120a5576120a4612771565b5b6040519080825280601f01601f1916602001820160405280156120d75781602001600182028036833780820191505090505b5090505b60008514612164576001826120f091906134f9565b9150600a856120ff919061337b565b603061210b91906130ae565b60f81b81838151811061212157612120612f0c565b5b60200101907effffffffffffffffffffffffffffffffffffffffffffffffffffffffffffff1916908160001a905350600a8561215d919061380c565b94506120db565b8093505050505b919050565b61217a83836121ee565b6121876000848484611e78565b6121c6576040517f08c379a00000000000000000000000000000000000000000000000000000000081526004016121bd90613677565b60405180910390fd5b505050565b6000808273ffffffffffffffffffffffffffffffffffffffff163b119050919050565b600073ffffffffffffffffffffffffffffffffffffffff168273ffffffffffffffffffffffffffffffffffffffff16141561225e576040517f08c379a000000000000000000000000000000000000000000000000000000000815260040161225590613889565b60405180910390fd5b61226781611d70565b156122a7576040517f08c379a000000000000000000000000000000000000000000000000000000000815260040161229e906138f5565b60405180910390fd5b6122b360008383611e6e565b6001600360008473ffffffffffffffffffffffffffffffffffffffff1673ffffffffffffffffffffffffffffffffffffffff168152602001908152602001600020600082825461230391906130ae565b92505081905550816002600083815260200190815260200160002060006101000a81548173ffffffffffffffffffffffffffffffffffffffff021916908373ffffffffffffffffffffffffffffffffffffffff160217905550808273ffffffffffffffffffffffffffffffffffffffff16600073ffffffffffffffffffffffffffffffffffffffff167fddf252ad1be2c89b69c2b068fc378daa952ba7f163c4a11628f55a4df523b3ef60405160405180910390a46123c460008383611e73565b5050565b6040518060600160405280600390602082028036833780820191505090505090565b8280546123f690612cfb565b90600052602060002090601f016020900481019282612418576000855561245f565b82601f1061243157805160ff191683800117855561245f565b8280016001018555821561245f579182015b8281111561245e578251825591602001919060010190612443565b5b50905061246c9190612470565b5090565b5b80821115612489576000816000905550600101612471565b5090565b6000604051905090565b600080fd5b600080fd5b60007fffffffff0000000000000000000000000000000000000000000000000000000082169050919050565b6124d6816124a1565b81146124e157600080fd5b50565b6000813590506124f3816124cd565b92915050565b60006020828403121561250f5761250e612497565b5b600061251d848285016124e4565b91505092915050565b60008115159050919050565b61253b81612526565b82525050565b60006020820190506125566000830184612532565b92915050565b600081519050919050565b600082825260208201905092915050565b60005b8381101561259657808201518184015260208101905061257b565b838111156125a5576000848401525b50505050565b6000601f19601f8301169050919050565b60006125c78261255c565b6125d18185612567565b93506125e1818560208601612578565b6125ea816125ab565b840191505092915050565b6000602082019050818103600083015261260f81846125bc565b905092915050565b6000819050919050565b61262a81612617565b811461263557600080fd5b50565b60008135905061264781612621565b92915050565b60006020828403121561266357612662612497565b5b600061267184828501612638565b91505092915050565b600073ffffffffffffffffffffffffffffffffffffffff82169050919050565b60006126a58261267a565b9050919050565b6126b58161269a565b82525050565b60006020820190506126d060008301846126ac565b92915050565b6126df8161269a565b81146126ea57600080fd5b50565b6000813590506126fc816126d6565b92915050565b6000806040838503121561271957612718612497565b5b6000612727858286016126ed565b925050602061273885828601612638565b9150509250929050565b61274b81612617565b82525050565b60006020820190506127666000830184612742565b92915050565b600080fd5b7f4e487b7100000000000000000000000000000000000000000000000000000000600052604160045260246000fd5b6127a9826125ab565b810181811067ffffffffffffffff821117156127c8576127c7612771565b5b80604052505050565b60006127db61248d565b90506127e782826127a0565b919050565b600067ffffffffffffffff82111561280757612806612771565b5b602082029050602081019050919050565b600080fd5b600061283061282b846127ec565b6127d1565b9050808382526020820190506020840283018581111561285357612852612818565b5b835b8181101561287c57806128688882612638565b845260208401935050602081019050612855565b5050509392505050565b600082601f83011261289b5761289a61276c565b5b81356128ab84826020860161281d565b91505092915050565b600080604083850312156128cb576128ca612497565b5b60006128d985828601612638565b925050602083013567ffffffffffffffff8111156128fa576128f961249c565b5b61290685828601612886565b9150509250929050565b60008060006060848603121561292957612928612497565b5b6000612937868287016126ed565b9350506020612948868287016126ed565b925050604061295986828701612638565b9150509250925092565b600060039050919050565b600081905092915050565b6000819050919050565b61298c81612617565b82525050565b600061299e8383612983565b60208301905092915050565b6000602082019050919050565b6129c081612963565b6129ca818461296e565b92506129d582612979565b8060005b83811015612a065781516129ed8782612992565b96506129f8836129aa565b9250506001810190506129d9565b505050505050565b6000606082019050612a2360008301846129b7565b92915050565b600060208284031215612a3f57612a3e612497565b5b6000612a4d848285016126ed565b91505092915050565b612a5f81612526565b8114612a6a57600080fd5b50565b600081359050612a7c81612a56565b92915050565b60008060408385031215612a9957612a98612497565b5b6000612aa7858286016126ed565b9250506020612ab885828601612a6d565b9150509250929050565b7f4e487b7100000000000000000000000000000000000000000000000000000000600052602160045260246000fd5b60038110612b0257612b01612ac2565b5b50565b6000819050612b1382612af1565b919050565b6000612b2382612b05565b9050919050565b612b3381612b18565b82525050565b6000602082019050612b4e6000830184612b2a565b92915050565b600080fd5b600067ffffffffffffffff821115612b7457612b73612771565b5b612b7d826125ab565b9050602081019050919050565b82818337600083830152505050565b6000612bac612ba784612b59565b6127d1565b905082815260208101848484011115612bc857612bc7612b54565b5b612bd3848285612b8a565b509392505050565b600082601f830112612bf057612bef61276c565b5b8135612c00848260208601612b99565b91505092915050565b60008060008060808587031215612c2357612c22612497565b5b6000612c31878288016126ed565b9450506020612c42878288016126ed565b9350506040612c5387828801612638565b925050606085013567ffffffffffffffff811115612c7457612c7361249c565b5b612c8087828801612bdb565b91505092959194509250565b60008060408385031215612ca357612ca2612497565b5b6000612cb1858286016126ed565b9250506020612cc2858286016126ed565b9150509250929050565b7f4e487b7100000000000000000000000000000000000000000000000000000000600052602260045260246000fd5b60006002820490506001821680612d1357607f821691505b60208210811415612d2757612d26612ccc565b5b50919050565b7f4552433732313a20617070726f76616c20746f2063757272656e74206f776e6560008201527f7200000000000000000000000000000000000000000000000000000000000000602082015250565b6000612d89602183612567565b9150612d9482612d2d565b604082019050919050565b60006020820190508181036000830152612db881612d7c565b9050919050565b7f4552433732313a20617070726f76652063616c6c6572206973206e6f7420746f60008201527f6b656e206f776e6572206e6f7220617070726f76656420666f7220616c6c0000602082015250565b6000612e1b603e83612567565b9150612e2682612dbf565b604082019050919050565b60006020820190508181036000830152612e4a81612e0e565b9050919050565b6000604082019050612e6660008301856126ac565b612e7360208301846126ac565b9392505050565b7f4552433732313a2063616c6c6572206973206e6f7420746f6b656e206f776e6560008201527f72206e6f7220617070726f766564000000000000000000000000000000000000602082015250565b6000612ed6602e83612567565b9150612ee182612e7a565b604082019050919050565b60006020820190508181036000830152612f0581612ec9565b9050919050565b7f4e487b7100000000000000000000000000000000000000000000000000000000600052603260045260246000fd5b600081905092915050565b50565b6000612f56600083612f3b565b9150612f6182612f46565b600082019050919050565b6000612f7782612f49565b9150819050919050565b7f4552433732313a20696e76616c696420746f6b656e2049440000000000000000600082015250565b6000612fb7601883612567565b9150612fc282612f81565b602082019050919050565b60006020820190508181036000830152612fe681612faa565b9050919050565b7f4552433732313a2061646472657373207a65726f206973206e6f74206120766160008201527f6c6964206f776e65720000000000000000000000000000000000000000000000602082015250565b6000613049602983612567565b915061305482612fed565b604082019050919050565b600060208201905081810360008301526130788161303c565b9050919050565b7f4e487b7100000000000000000000000000000000000000000000000000000000600052601160045260246000fd5b60006130b982612617565b91506130c483612617565b9250827fffffffffffffffffffffffffffffffffffffffffffffffffffffffffffffffff038211156130f9576130f861307f565b5b828201905092915050565b600061310f82612617565b91507fffffffffffffffffffffffffffffffffffffffffffffffffffffffffffffffff8214156131425761314161307f565b5b600182019050919050565b6000819050919050565b6131608161314d565b82525050565b600067ffffffffffffffff82169050919050565b61318381613166565b82525050565b600061ffff82169050919050565b6131a081613189565b82525050565b600063ffffffff82169050919050565b6131bf816131a6565b82525050565b600060a0820190506131da6000830188613157565b6131e7602083018761317a565b6131f46040830186613197565b61320160608301856131b6565b61320e60808301846131b6565b9695505050505050565b60008151905061322781612621565b92915050565b60006020828403121561324357613242612497565b5b600061325184828501613218565b91505092915050565b600081905092915050565b60006132708261255c565b61327a818561325a565b935061328a818560208601612578565b80840191505092915050565b60006132a28285613265565b91506132ae8284613265565b91508190509392505050565b7f4f776e61626c653a206e6577206f776e657220697320746865207a65726f206160008201527f6464726573730000000000000000000000000000000000000000000000000000602082015250565b6000613316602683612567565b9150613321826132ba565b604082019050919050565b6000602082019050818103600083015261334581613309565b9050919050565b7f4e487b7100000000000000000000000000000000000000000000000000000000600052601260045260246000fd5b600061338682612617565b915061339183612617565b9250826133a1576133a061334c565b5b828206905092915050565b60006040820190506133c16000830185612b2a565b6133ce60208301846126ac565b9392505050565b7f4552433732313a207472616e736665722066726f6d20696e636f72726563742060008201527f6f776e6572000000000000000000000000000000000000000000000000000000602082015250565b6000613431602583612567565b915061343c826133d5565b604082019050919050565b6000602082019050818103600083015261346081613424565b9050919050565b7f4552433732313a207472616e7366657220746f20746865207a65726f2061646460008201527f7265737300000000000000000000000000000000000000000000000000000000602082015250565b60006134c3602483612567565b91506134ce82613467565b604082019050919050565b600060208201905081810360008301526134f2816134b6565b9050919050565b600061350482612617565b915061350f83612617565b9250828210156135225761352161307f565b5b828203905092915050565b7f4f776e61626c653a2063616c6c6572206973206e6f7420746865206f776e6572600082015250565b6000613563602083612567565b915061356e8261352d565b602082019050919050565b6000602082019050818103600083015261359281613556565b9050919050565b7f4552433732313a20617070726f766520746f2063616c6c657200000000000000600082015250565b60006135cf601983612567565b91506135da82613599565b602082019050919050565b600060208201905081810360008301526135fe816135c2565b9050919050565b7f4552433732313a207472616e7366657220746f206e6f6e20455243373231526560008201527f63656976657220696d706c656d656e7465720000000000000000000000000000602082015250565b6000613661603283612567565b915061366c82613605565b604082019050919050565b6000602082019050818103600083015261369081613654565b9050919050565b7f45524337323155524953746f726167653a2055524920736574206f66206e6f6e60008201527f6578697374656e7420746f6b656e000000000000000000000000000000000000602082015250565b60006136f3602e83612567565b91506136fe82613697565b604082019050919050565b60006020820190508181036000830152613722816136e6565b9050919050565b600081519050919050565b600082825260208201905092915050565b600061375082613729565b61375a8185613734565b935061376a818560208601612578565b613773816125ab565b840191505092915050565b600060808201905061379360008301876126ac565b6137a060208301866126ac565b6137ad6040830185612742565b81810360608301526137bf8184613745565b905095945050505050565b6000815190506137d9816124cd565b92915050565b6000602082840312156137f5576137f4612497565b5b6000613803848285016137ca565b91505092915050565b600061381782612617565b915061382283612617565b9250826138325761383161334c565b5b828204905092915050565b7f4552433732313a206d696e7420746f20746865207a65726f2061646472657373600082015250565b6000613873602083612567565b915061387e8261383d565b602082019050919050565b600060208201905081810360008301526138a281613866565b9050919050565b7f4552433732313a20746f6b656e20616c7265616479206d696e74656400000000600082015250565b60006138df601c83612567565b91506138ea826138a9565b602082019050919050565b6000602082019050818103600083015261390e816138d2565b905091905056fea26469706673582212201b14a5402311b6a6d40e95844e88b3dfbdf426db96d300a91c084206a473f82264736f6c63430008080033",
  "linkReferences": {},
  "deployedLinkReferences": {}
}