{
    "contractName": "SimpleStorage",
    "abi": [
        {
            "inputs": [
                {
                    "internalType": "string",
                    "name": "_name",
                    "type": "string"
                },
                {
                    "internalType": "uint256",
                    "name": "_favouriteNumber",
                    "type": "uint256"
                }
            ],
            "name": "addPerson",
            "outputs": [],
            "stateMutability": "nonpayable",
            "type": "function"
        },
        {
            "inputs": [
                {
                    "internalType": "string",
                    "name": "",
                    "type": "string"
                }
            ],
            "name": "nameToFavouriteNumber",
            "outputs": [
                {
                    "internalType": "uint256",
                    "name": "",
                    "type": "uint256"
                }
            ],
            "stateMutability": "view",
            "type": "function"
        },
        {
            "inputs": [
                {
                    "internalType": "uint256",
                    "name": "",
                    "type": "uint256"
                }
            ],
            "name": "people",
            "outputs": [
                {
                    "internalType": "uint256",
                    "name": "favouriteNumber",
                    "type": "uint256"
                },
                {
                    "internalType": "string",
                    "name": "name",
                    "type": "string"
                }
            ],
            "stateMutability": "view",
            "type": "function"
        },
        {
            "inputs": [],
            "name": "retrieve",
            "outputs": [
                {
                    "internalType": "uint256",
                    "name": "",
                    "type": "uint256"
                }
            ],
            "stateMutability": "view",
            "type": "function"
        },
        {
            "inputs": [
                {
                    "internalType": "uint256",
                    "name": "_favouriteNumber",
                    "type": "uint256"
                }
            ],
            "name": "store",
            "outputs": [],
            "stateMutability": "nonpayable",
            "type": "function"
        }
    ],
    "bytecode": "608060405234801561001057600080fd5b50610517806100206000396000f3fe608060405234801561001057600080fd5b50600436106100575760003560e01c80632e64cec11461005c5780636057361d146100735780636f760f41146100885780639e7a13ad1461009b578063b2ac62ef146100bc575b600080fd5b6000545b6040519081526020015b60405180910390f35b6100866100813660046102e3565b600055565b005b61008661009636600461039f565b6100e7565b6100ae6100a93660046102e3565b610192565b60405161006a929190610414565b6100606100ca36600461044e565b805160208183018101805160018252928201919093012091525481565b604080518082019091528181526020808201848152600280546001810182556000829052845191027f405787fa12a823e0f2b7631cc41b3ba8828b3321ca811111fa75cd3aa3bb5ace810191825591518051919361016a937f405787fa12a823e0f2b7631cc41b3ba8828b3321ca811111fa75cd3aa3bb5acf019291019061024a565b5050508060018360405161017e919061048b565b908152604051908190036020019020555050565b600281815481106101a257600080fd5b600091825260209091206002909102018054600182018054919350906101c7906104a7565b80601f01602080910402602001604051908101604052809291908181526020018280546101f3906104a7565b80156102405780601f1061021557610100808354040283529160200191610240565b820191906000526020600020905b81548152906001019060200180831161022357829003601f168201915b5050505050905082565b828054610256906104a7565b90600052602060002090601f01602090048101928261027857600085556102be565b82601f1061029157805160ff19168380011785556102be565b828001600101855582156102be579182015b828111156102be5782518255916020019190600101906102a3565b506102ca9291506102ce565b5090565b5b808211156102ca57600081556001016102cf565b6000602082840312156102f557600080fd5b5035919050565b634e487b7160e01b600052604160045260246000fd5b600082601f83011261032357600080fd5b813567ffffffffffffffff8082111561033e5761033e6102fc565b604051601f8301601f19908116603f01168101908282118183101715610366576103666102fc565b8160405283815286602085880101111561037f57600080fd5b836020870160208301376000602085830101528094505050505092915050565b600080604083850312156103b257600080fd5b823567ffffffffffffffff8111156103c957600080fd5b6103d585828601610312565b95602094909401359450505050565b60005b838110156103ff5781810151838201526020016103e7565b8381111561040e576000848401525b50505050565b82815260406020820152600082518060408401526104398160608501602087016103e4565b601f01601f1916919091016060019392505050565b60006020828403121561046057600080fd5b813567ffffffffffffffff81111561047757600080fd5b61048384828501610312565b949350505050565b6000825161049d8184602087016103e4565b9190910192915050565b600181811c908216806104bb57607f821691505b6020821081036104db57634e487b7160e01b600052602260045260246000fd5b5091905056fea2646970667358221220cbde8995b00ef048a93cf2dbc419985f023e4879610e29842b9b99758a4d3ed464736f6c634300080e0033",
    "sourcePath": "c:/Users/su-ad/Documents/hh-fcc/ethers-simple-storage/SimpleStorage.sol",
    "compiler": {
        "name": "solc",
        "version": "0.8.14+commit.80d49f37"
    },
    "functionHashes": {
        "addPerson(string,uint256)": "6f760f41",
        "nameToFavouriteNumber(string)": "b2ac62ef",
        "people(uint256)": "9e7a13ad",
        "retrieve()": "2e64cec1",
        "store(uint256)": "6057361d"
    },
    "gasEstimates": {
        "creation": {
            "codeDepositCost": "260600",
            "executionCost": "300",
            "totalCost": "260900"
        },
        "external": {
            "addPerson(string,uint256)": "infinite",
            "nameToFavouriteNumber(string)": "infinite",
            "people(uint256)": "infinite",
            "retrieve()": "2248",
            "store(uint256)": "22312"
        }
    }
}